:020000040800F2
:1000000088260020A5020008753D0008D1370008A9
:10001000E93B0008C10800082D4D00080000000061
:100020000000000000000000000000003D4000084B
:10003000C508000800000000E93D000875430008FD
:10004000BF020008BF020008BF020008BF0200088C
:10005000BF020008BF020008BF020008BF0200087C
:10006000BF020008BF020008BF020008BF0200086C
:10007000BF020008BF020008BF020008BF0200085C
:10008000BF020008BF02000899050008BF0200086F
:10009000BF020008BF020008BF020008BF0200083C
:1000A000BF020008BF0200088D430008BF0200081D
:1000B000BF020008BF020008BF020008BF0200081C
:1000C000BF020008BF020008BF020008BF0200080C
:1000D000BF020008BF020008BF020008BF020008FC
:1000E000BF020008BF020008BF020008BF020008EC
:1000F000BF020008BF020008BF020008BF020008DC
:10010000BF020008BF020008BF020008BF020008CB
:10011000BF020008BF020008BF020008BF020008BB
:10012000BF020008BF020008BF020008BF020008AB
:10013000BF020008BF020008BF020008BF0200089B
:10014000BF020008BF020008BF020008BF0200088B
:10015000BF020008BF020008BF020008BF0200087B
:10016000BF020008BF020008BF020008BF0200086B
:10017000BF020008BF020008BF020008BF0200085B
:10018000BF020008BF020008BF020008BF0200084B
:10019000BF02000800000000BF020008BF02000804
:1001A000BF020008BF020008BF020008BF0200082B
:1001B000BF020008BF020008BF020008BF0200081B
:1001C000BF020008BF020008BF020008BF0200080B
:1001D000BF020008BF02000800F002F800F052F869
:1001E00014A696E8000CB244B344DA4501D100F0FD
:1001F00049F8BAE80F000FA696E83000A5EB040511
:1002000004EB0607AAEB0704A7F101074FEA15154F
:100210004FEA3414A4F10104AC4201D300F032F8E7
:1002200013F0010F18BFFB1A43F0010300F001F8AF
:10023000DBE71847F475000014760000103A24BF7D
:1002400078C878C1FAD8520724BF30C830C144BF3B
:1002500004680C6070470000704700000023002411
:1002600000250026103A28BF78C1FBD8520728BFC6
:1002700030C148BF0B6070471FB507F004FA1FBDBF
:1002800010B510BD00F052F91146FFF7F5FF05F06B
:100290007FFF00F070F903B4FFF7F2FF03BC00F03A
:1002A00073F900000948804709480047FEE7FEE768
:1002B000FEE7FEE7FEE7FEE7FEE7FEE7FEE7FEE716
:1002C00004480549054A064B704700007943000879
:1002D000D9010008882000208826002088220020DC
:1002E0008822002053EA020C00F069802DE9F04BCF
:1002F0004FF00006002B1FBFB3FA83F503FA05F495
:1003000024FA05F65E4012BF1643B2FA82F502FAED
:1003100005F4C5F120051EBF22FA05FC44EA0C04D1
:10032000203556EA044C4FEA144418BF641C4FF0C1
:1003300000084FF00009904271EB030C39D30029FB
:1003400019BFB1FA81F701FA07F6B0FA80F700FA9F
:1003500007F6C7F120071EBF20FA07FC46EA0C0685
:100360002037B6FBF4FCA7EB0507103F07F01F0B87
:10037000CBF120062CFA06F60CFA0BFB44BFB34671
:100380000026202FA4BF5E464FF0000B5BEA060C50
:1003900008BF4FF0010B19EB0B0948EB0608ABFB4C
:1003A000027C06FB02CC0BFB03CCC01B71EB0C01E7
:1003B000C1E70B46024641464846BDE8F08B13B5FF
:1003C000084318BF4FF0FF300146AFF30080BDE88F
:1003D0001C40704710B5203AC0F00B80B1E81850AF
:1003E000A0E81850B1E81850A0E81850203ABFF41F
:1003F000F5AF5FEA027C24BFB1E81850A0E81850BE
:1004000044BF18C918C0BDE810405FEA827C24BF11
:1004100051F8043B40F8043B08BF7047D20728BF9F
:1004200031F8023B48BF11F8012B28BF20F8023BEE
:1004300048BF00F8012B7047431A28BF9A427FF645
:10044000C9AF1044114410F0030F1EBF11F8013D55
:10045000521E00F8013D10F0030F7FF4F6AF103A82
:10046000C0F00A8010B531E9185020E91850103A50
:10047000BFF4F9AFBDE81040530724BF31E90810BD
:1004800020E9081044BF51F8043D40F8043D12F043
:10049000030F08BF7047D20728BF31F8023D48BF9D
:1004A00011F8012C28BF20F8023D48BF00F8012CAC
:1004B00070474FF0000200B5134694469646203927
:1004C00022BFA0E80C50A0E80C50B1F12001BFF40D
:1004D000F7AF090728BFA0E80C5048BF0CC05DF873
:1004E00004EB890028BF40F8042B08BF704748BFC1
:1004F00020F8022B11F0804F18BF00F8012B704735
:1005000070477047704710B500F008F8006810BDDC
:1005100010B5044600F002F8046010BD00487047B2
:100520001000002000487047100000207546FFF7BB
:10053000F9FFAE4605006946534620F007008546A0
:1005400018B020B5FFF7BCFEBDE820404FF0000614
:100550004FF000074FF000084FF0000BAC46ACE83E
:10056000C009ACE8C009ACE8C009ACE8C00921F09A
:1005700007018D46704710B50446AFF30080204652
:10058000BDE81040FFF787BE01491820ABBEFEE76B
:10059000260002007047000041F6D840C2F2000079
:1005A00000F072BD70B582B0044600200190216851
:1005B0008A68D20711D14FF6C076C7F6FF768868F1
:1005C00006F17F0210420BD0E06D40F01000E065B4
:1005D000206E40F001002066012002B070BD00BF17
:1005E00088684FF4C162304040F00100886040F2FA
:1005F0000010C5F20000814208BF4FF40272B1F151
:10060000A04F08BF4FF402721058000222D401F02C
:1006100047F921680A68D20718D1054603E000BFF0
:100620000868C00712D18868C00704D188683040C4
:1006300040F00100886001F033F9401B2168032875
:10064000EED30868C007EBD1BEE700BF002002B0C0
:1006500070BD00BF40F20800C2F20000006842F620
:1006600063518009C0F23E51A0FB0101880900EBF3
:1006700040000C2101EB8000019001980028C6D0B9
:1006800001980138019001980028C0D001980138E4
:10069000019001980028BAD0019801380190019882
:1006A0000028B4D001980138019001980028E7D1C2
:1006B000ADE7000010B5044640682189012201F031
:1006C000E9F84FF4A06161814BF217714AF25802C8
:1006D00046F286130020C3F65101C4F28B22C4F205
:1006E0001813A062C4E90313C4E90520C4E9070094
:1006F00004F12C002C21FFF7DCFE10BD2DE9F047A2
:100700002DED088B84B004464FF0FF394FF0000AFE
:100710004FF0140864270DF10E050DF10A060029AB
:1007200008BF47F6FE790FE02068294632460123CC
:10073000009702F0A9F860682189012201F0AAF867
:10074000BDF80A00410421D5ADF80E908DF80D805A
:1007500060682189002201F09DF820682946324610
:100760000123009702F090F860682189012200BF00
:1007700001F090F89DF80D00411E00288DF80D1035
:10078000D2D0606821890022F2E700BF00B281B2B6
:100790000AEB000202EB510202EB910202EBD102E2
:1007A00002EB111202EB511202EB911202EBD11289
:1007B00002EB112202EB512202EB912202EBD12239
:1007C00002EB113202EB513202EB913A002802F0B7
:1007D000010101D40029B7D1B0F1FF3F01DC0029AC
:1007E000B2D06FF39F304FF4B471484300EE100A5B
:1007F000A07A9FED2E1AE17A0130B8EE400AC2B21B
:1008000020EE018A8A4284ED068AA07246D194EDD8
:10081000070A9FED271A38EE409AB4EE419AF1EE9E
:1008200010FA03DD9FED250A09E000BF9FED210AC4
:10083000B4EE409AF1EE10FA03DA9FED1F0A39EE9A
:10084000009A94ED050A94ED0B1A94ED152A04F123
:100850002C0004F13001242229EE00AA32EE41BA24
:10086000FFF7EAFD3AEE0B0AB2EE041A80EE011A27
:1008700084ED150A94ED040A94ED0A2A002084ED13
:1008800014AA84ED078AA07221EE000A84ED090AF9
:1008900039EE020A84ED081A84ED0A0AB0EE480A1D
:1008A00004B0BDEC088BBDE8F08700BF00008038C5
:1008B00000007043000070C30000B4430000B4C3E4
:1008C000FEE7000070470000EFF3108072B600BF33
:1008D000FEE70000704700002DE9F04181B00022E2
:1008E000009290F85820012A06D14FF0020C604681
:1008F00001B0BDE8F08100BF4269012380F85830A3
:1009000012B10B6A012B21D14A68092A1AD10A684F
:100910008B6A4FF4785707EA524223B1CF6A03F04B
:100920007C033B431A43D0F8008044F20006D8F819
:100930004C70C0F2104637401743C8F84C704266FE
:100940002EE000BFD0F800802AE000BF866E1EB106
:10095000456E00220AE000BF8F6A5A1E27B1CE6A98
:1009600007F07C0737433A4300251E46D1E900379C
:10097000D0F8008007F01F07C3F38463BB401A431D
:10098000771E42EA0502C0E9192709D1D8F84C7050
:1009900044F20006C0F2104637403A43C8F84C20F3
:1009A000D8F80820120714D4D8F80C2091F8257034
:1009B00091F8266022F44012002F4FEA465701D0EA
:1009C0003A4304E091F8246042EA06523A43C8F8F8
:1009D0000C20D8F80820D8F8087002F0040207F0BC
:1009E0000807D21916D18A6AC2B1CA6AB2B191F89F
:1009F0002520012A1CD1C26D4FF0010C42F02002CB
:100A0000C26591F83070D8F81020012F1ED022F066
:100A1000020223E04FF0000CE9E000BF91F82570DE
:100A2000D8F80C20012F05D142F0007204E000BF7D
:100A3000D8F80C2022F000724FF0000CC8F80C20FF
:100A400091F83070D8F81020012FE0D1D1E90D765F
:100A500022F4FF723A43324342F00202C8F81020F7
:100A60000F6808F114020426C7F340648D6806EA93
:100A7000D75E52F82440C7F304570726BE40B5F1AD
:100A8000004F24EA060405D142F80E40126842F0F5
:100A9000004206E0BD402C4342F80E40126822F0AE
:100AA0000042C8F81420D1E90427D8F80C60042AC1
:100AB00070D1D8F86020D8F860200C68C2F3846642
:100AC00094FAA4F52246B5FA85F5C4F3846E6FF363
:100AD000DF422C46002A08BF7446A6424FF6FF7438
:100AE000C0F207040ED1D8F8602022F00042C8F806
:100AF00060200D6805EA0402C5F3846E95FAA5F539
:100B0000B5FA85F5D8F86460D8F86460002AC6F3B1
:100B100084662F4608BF7746BE420ED1D8F86420BF
:100B200022F00042C8F864200D6805EA0402C5F30B
:100B3000846E95FAA5F5B5FA85F5D8F86860D8F809
:100B40006860002AC6F384662F4608BF7746BE4217
:100B50000ED1D8F8682022F00042C8F868200D684D
:100B600005EA040295FAA5F4C5F3846EB4FA84F597
:100B7000D8F86C40D8F86C40002AC4F3846408BFED
:100B80007546AC4233D1D8F86C2022F00042C8F848
:100B90006C202CE0062505EA960607FA06FE0E688C
:100BA00008F1600555F822404FF20007C0F2FF3708
:100BB00006F0F8463C404EEA0607274347F0004758
:100BC00045F822700A698F6955F8226026F0807610
:100BD000374345F822700A690F7F55F82260012FCC
:100BE00026F0007608BF06F1007645F82260D8F8B6
:100BF00008200F68D2074ED1CE684FF6FF73D8F8A1
:100C0000B0503A4606F01804C0F207036FF3DF4213
:100C1000E34095433B402B430025C4F27F05AE42A1
:100C2000C8F8B03037D18AB197FAA7F2B2FA82F297
:100C3000013202F01E03092B02F01F020FD801231C
:100C4000934002EB420243EA025214E0012202EB1B
:100C5000976202F01E030A2B02F01F02EFD301235A
:100C60000027934002EB4202CFF6206707EB0252C7
:100C70001A4342F00072C2F3406708EB87078B68A3
:100C80007E69C2F3045207259540AE4303FA02F28F
:100C900032437A610F680021C8F208010F4200F068
:100CA0007D8040F20014C5F2000408F13041A8EB49
:100CB0000402B1FA81F1B2FA82F2490952091143F0
:100CC00004F5C1654FF4C1611CBF4FF4027104F516
:100CD00002750E590022CCF22132974206F0E07ED6
:100CE00004D01022C9F2C00297423DD1320255D43D
:100CF00040F20062C5F20002904502D0B8F1A04F68
:100D00004CD1625822F0E07242EA0E0242F4000234
:100D1000625040F20801C2F20001096842F66352D3
:100D20008909C0F23E52A1FB0212910901EB410177
:100D3000182202EB81010091009979B300990139E1
:100D40000091009951B3009901390091009929B39C
:100D5000009901390091009901B30099013900917E
:100D600000990029EAD119E00021CCF252718F429A
:100D70000CD1BEF1807F09D24FF080712A6822F039
:100D8000E072114341EA0E01296007E00021CCF630
:100D900084318F4208BF16F4800107D0002180F80B
:100DA0005810604601B0BDE8F08100BFB8F1A04F17
:100DB00006D0A045F2D0A04502D004F5C06101E004
:100DC00004F5007101F108054FF48001D6E7000039
:100DD00041F6D841C2F20001884218BF704710B5F1
:100DE000086841F6EC64D0F88010D0F88420C2F294
:100DF00000042046002305F04BF92046BDE81040D2
:100E000005F05EB87047000070B540F20044C5F2CE
:100E100000040168A4F540724FF44273914208BF88
:100E20006FF0F703B1F1A04F08BF6FF0F7031D5942
:100E30008A68120744BF022070BDCA68C96C11F4E9
:100E4000C07F07D1002A05D4C16D41F02001C165E2
:100E5000012070BD90F85810012904BF022070BD18
:100E6000012180F858100646FFF79CFB20B10021B5
:100E700086F8581070BD00BFF16D3046C90546BFF9
:100E8000016E21F0080100210166C16D43F20102EB
:100E9000914301F58051C165016840F2001EC5F221
:100EA000000E40F2005C7145C5F2000C04D06145B3
:100EB00010D1224602E000BF4FF0A04205F01F060D
:100EC000B6FA86F38A424FEA531218BF002E06D0B4
:100ED000002208E005F01F02B2FA82F25209C36D47
:100EE00023F48013C36560230B600023714580F8F1
:100EF000583005D0614515D18C4205D112E000BFB4
:100F00004FF0A0448C420DD005F01E03063BB3FA0F
:100F100083F35B091A4305D1C16D41F48011C165AA
:100F2000002070BDC868800144BF002070BD886883
:100F30004FF6C072C7F6FF7210400830886000207C
:100F400070BD0000704700007047000090F8582006
:100F5000012A04BF0220704770B582B000220192BE
:100F60000092026840F2080CC5F2000CB2F1A04FEA
:100F70000CF1F80508D040F20043C5F200039A4294
:100F800034D10CF59F6300E02B469B6894682343A3
:100F90005B072BD44FF4E063D1F800E0AA4208BF0E
:100FA0004FF44073B2F1A04F08BF4FF440735CF8A8
:100FB0000340BEF1000F24F4604425D04D6890F842
:100FC000386042F4807245EA46352C4340F2001501
:100FD000C5F20005AA424CF8034027D1DCF80020F6
:100FE000DCF800412243D20748D129E0C16D41F02D
:100FF0002001C1650121002280F8582002B0BDE81F
:1010000070400846704700BF42F4807140F2001201
:10101000C5F2000291424CF803401BD1DCF80010ED
:10102000DCF800211143C90728D11DE0DCF80024B9
:10103000DCF80045DCF8005622432A43D2071DD1D4
:101040005CF8032040F61F748968A243114341EA0B
:101050000E010EE0DCF80014DCF80025DCF8006678
:1010600011433143C90709D15CF8031040F61F72E0
:1010700091434CF803100021BDE700BF0021BAE7FF
:1010800070470000704700002DE9F04F81B040F23A
:1010900000410768C5F200010446A1F5407A4FF40B
:1010A00042703E687D68574508BF6FF0F700B7F1A2
:1010B000A04F08BF6FF0F70050F80180B0070FD5C0
:1010C00015F002000CD0E06DC00603D4E06D40F4D2
:1010D0000060E0652046FFF7FDFB276802203860CE
:1010E00040F2001B08F01F097007C5F2000B02D583
:1010F00015F0040004D1300758D515F0080055D07C
:10110000204650F85C1FC90603D4016841F4007101
:101110000160F96811F4406F42D15F450ED040F292
:101120000051C5F200018F42394619D140F2004109
:10113000C5F20001B942394605D111E04FF0A04196
:10114000B94239460CD0B9F1090F00F229810121C9
:1011500001FA09F140F221221142394600F02081C2
:10116000C96889041CD43968090719D5B9684907C1
:101170000CD4796821F00C017960016821F4807148
:1011800001600168C90407D50AE000BFE06D40F0C6
:101190001000E06504F16000016841F001010160A8
:1011A0002046FFF76DFF27680C203860B00602D597
:1011B00015F0200004D1700645D515F0400042D04E
:1011C000204650F85C1FC90603D4016841F4005161
:1011D0000160FB6CFA685F450ED040F20051C5F229
:1011E00000018F42394623D140F20041C5F200018F
:1011F000B942394605D11BE04FF0A041B94239460A
:1012000016D0B9F1000F394612D008F01E01062998
:1012100039460DD05F4500F08F8040F20051C5F295
:1012200000018F42394604BF40F20041C5F200017F
:10123000C96813F4C07F00F086802046FFF7C8FD20
:1012400027686020386030060CD515F0800009D082
:10125000E06D40F48030E065204600F0DFF927685B
:1012600080203860F0050DD515F480700AD0E06D4F
:1012700040F40030E0652046FFF764FE27684FF435
:1012800080703860B0050DD515F400700AD0E06D9F
:1012900040F48020E0652046FFF756FE27684FF4B3
:1012A00000703860F00628D515F0100025D0E06BEE
:1012B000A8B1B9F1000F3BD04FF44270574508BFB9
:1012C0006FF0F70040F20041B7F1A04F08BF6FF098
:1012D000F700C5F20001085810F4604F0BD0E06D24
:1012E00040F48060E065206E40F0020020662046F9
:1012F000FFF7C8FE276810203860700514D515F474
:10130000806011D0E06D4FF4806140F48040E06572
:10131000206E40F0080020662046396001B0BDE82C
:10132000F04FFFF76FBD00BF01B0BDE8F08F00BF09
:10133000F868C007D3D1DEE74FF0A041C96813F4C5
:10134000C07F7FF47AAF8B0106D502F4406201F4CE
:101350000053D2187FF471AF3A6852067FF56DAF33
:1013600011F400117FF469AFB96809070CD47968EA
:1013700021F060017960016821F480510160016809
:10138000C9053FF55AAF05E0E06D40F01000E0659B
:1013900004F16000016841F0010101604DE700BF08
:1013A0005F450BD040F20051C5F200018F42394633
:1013B00004BF40F20041C5F20001D1E64FF0A04168
:1013C000CEE6000070B582B000210028019153D014
:1013D000C16D39B9044600F023F920460021216689
:1013E00084F858100268916889004FF6C071C5F6FC
:1013F000FF7102D593680B4093609368DB002ED495
:10140000936801F18051194041F08051916040F2A0
:101410000801C2F20001096842F663538909C0F26B
:101420003E53A1FB03139909022303EB41010191F0
:101430000199A1B1019901390191019979B10199FC
:1014400001390191019951B1019901390191019934
:1014500029B101990139019101990029EAD19168D5
:10146000C9000DD4C16D012641F01001C165016EA6
:1014700041F00101016604E00126304602B070BD72
:1014800000269368C46D03F0040304F010041B19D4
:10149000C36D77D123F481730233C3659368DB078F
:1014A0002AD140F2001442F48073C5F2000440F2E5
:1014B000080CA342C5F2000C40F0A280DCF800400A
:1014C000DCF800311C43E30716D10CF1F8034FF4AC
:1014D000E064D0F804E09A4208BF4FF44074B2F1DF
:1014E000A04F08BF4FF440745CF8043023F47C1321
:1014F00043EA0E034CF80430437FC46BD0E9021575
:1015000044EA43332B4390F824501943012D41EA18
:10151000054306D1816A0025CFF6FE7505EB4141F2
:101520000B43C46A24B1016B04F4787529430B435F
:10153000D16844F20705CFF6F07529401943D16010
:101540001169436B21F040611943116191680907EA
:1015500043D490F83810037F490041EA8331D368BF
:1015600044F20205AB431943D160036914698BB19E
:1015700044F480311161D2F8C01043F6FF75A943DD
:101580000B4310E043F010020126C265304602B062
:1015900070BD00BF24F480311161D2F8C01043F651
:1015A000FF7321EA0303C2F8C03090F840101369BA
:1015B00001290FD140F2FD7123EA010CD0E9113568
:1015C000D0E9134143EA0C032B432343194341F071
:1015D000010301E023F0010313614169136B012949
:1015E00023F00F0302D1016A01390B431363C26D6B
:1015F000012161F30102C265304602B070BD00BF37
:10160000DCF800E4DCF80045DCF8003644EA0E04BF
:101610001C43E3073FF459AF6EE70000704700003A
:1016200010B59CB0044600201B90CDE91900CDE90F
:10163000170002A804305021FEF73BFF2068B0F1EC
:10164000A04F01D01CB010BD4FF4004002904FF0ED
:101650000050139002A800F069FA002818BFFFF7A5
:1016600033F941F24C00C4F20200016841F4005128
:101670000160016801F4005101910199016841F094
:1016800001010160006817A900F0010001900198B4
:101690000320CDE91700002019904FF0904000F092
:1016A0001FF812200121002200F072F9122000F030
:1016B0005DF91CB010BD0000B0B5044600F0F0F8B4
:1016C000054640F20000C2F200004068611C18BFED
:1016D000044400BF00F0E4F8401BA042FAD3B0BDC0
:1016E0002DE9F04F83B00E68002E00F0CF8000F19E
:1016F000200241F2004C009200F13847C4F6000C81
:1017000006224FEAB725604508BF0522052D38BFE0
:101710004FEAB722002500274FF0000801920AE0A7
:101720000E6808F1010836FA08F207F1020705F120
:10173000040500F0AB80012202FA08FE16EA0E0949
:10174000EED0D1F804C003220CF0030BABF101067C
:1017500002FA07F4012E6FEA040A11D88468CE68F1
:1017600004EA0A04BE4034438460446824EA0E0656
:10177000CCF3001404FA08F42643466006E000BFE8
:10178000BBF1030F02D14FF0030B21E0C6688C6858
:1017900006EA0A06BC402643BBF1020FC66017D119
:1017A0006FF00302009B02EA580605F01C020F24AA
:1017B00053F806C004FA02FE0C692CEA0E0C04FA77
:1017C00002F242EA0C029A51D1F804C00CF0030B69
:1017D00002680BFA07F302EA0A021A431CF4403FBC
:1017E00002609DD041F26003C4F202031A6840F225
:1017F000004E42F001021A601A68C4F2010E02F0B3
:1018000001020292029A28F003024FF6084C724439
:10181000CFF6FF7C52F80C3005F00C060F24B440D4
:10182000A343019C04FA06F6334342F80C30DEF879
:1018300008204B6842EA090640F20C4CDC0258BF13
:1018400022EA0906CEF80860C4F2010CDCF8002098
:101850009C0242EA090658BF22EA0906CCF8006059
:10186000DEF804209C0342EA090658BF22EA090672
:10187000CEF80460DEF80020DB0342EA090658BF18
:1018800022EA0906CEF800604AE700BF03B0BDE8CF
:10189000F08F00001823002A08BF2823C15070478A
:1018A00042F28000C2F200000068704740F200007F
:1018B00042F28001C2F20000C2F2000140680A68F0
:1018C000104408607047000080B5032000F08CF8D9
:1018D0000F2000F009F800281CBF012080BD00F097
:1018E0002BF8002080BD0000B0B540F20005C2F228
:1018F00000056968F1B1044640F20800C2F2000038
:101900004FF47A720068B2FBF1F1B0FBF1F001F034
:1019100039F901460F2C4FF001000AD8002918BFF1
:10192000B0BD4FF0FF302146002200F031F800201A
:101930002C60B0BD0120B0BD82B041F25800C4F2AD
:101940000200816841F001018160816801F00101BC
:1019500001910199016841F080510160006800F037
:1019600080500090009802B000F0D6B8002848BF20
:10197000704700F01F01012202FA01F11C2202EA65
:10198000D0004EF20012CEF20002815070470000EB
:1019900010B54EF60C5CCEF2000CDCF80030C3F350
:1019A000022E8EF00704042C28BF0424BEF103038A
:1019B0004FF0FF3E0EFA04F438BF0023A1439940D4
:1019C0000EFA03F39A43114300F00F0200F1604353
:1019D0000901043A03F564436244002848BF02F158
:1019E0000C03197010BD00004EF60C51CEF2000130
:1019F0000A684FF6FF031A4060F30A2242F0806043
:101A000040F0FD700860704747F21401C4F2000115
:101A100051F8142CB0F5007F3CD0002874D1C86E6A
:101A200002F4C06220F48070B2F5806FC8662FD1D6
:101A300051F8140C012262F34A2041F8140C40F2D0
:101A40000800C2F200000068322250434DF6836263
:101A5000C4F21B32A0FB0202900C00BF0A685205C0
:101A600011D5421C0FD00A6852050CD558B10A682E
:101A7000520508D5012806D00A68520503D5022868
:101A8000A0F10400EAD10868400544BF0320704774
:101A900000207047C86E02F4C06240F48070B2F556
:101AA000806FC866F4D151F8140C012262F34A2009
:101AB00041F8140C40F20800C2F200000068322223
:101AC00050434DF68362C4F21B32A0FB0202900C1D
:101AD0000A68520511D5421C0FD00A6852050CD570
:101AE00058B10A68520508D5012806D00A6852057F
:101AF00003D50228A0F10400EAD10868400544BFDC
:101B000003207047C4E700BF022060F34A2241F877
:101B1000142C00207047000047F20800C4F20000B7
:101B2000016841F480410160704700002DE9F041F7
:101B300082B00446807841F288060007C4F20206AB
:101B400002D400202FE000BF56F8300C5FEAC00836
:101B50000BD456F8300C40F0805046F8300C56F854
:101B6000300C00F080500190019847F20007C4F259
:101B70000007386840F480703860FFF791FE054632
:101B80003868C00500F10C81FFF78AFE401B02286F
:101B9000F6D90320B8F1000F05D456F8301C21F017
:101BA000805146F8301C2168CA0717D18A071DD416
:101BB0004A0723D40A0729D4CA062FD48A0635D463
:101BC0004A063BD40A0641D4CA0547D48A034DD4F9
:101BD0008A0553D44A0559D467E000BF3268636868
:101BE00022F003021A4332608A07E1D53268A36803
:101BF00022F00C021A4332604A07DBD53268E368F0
:101C000022F030021A4332600A07D5D532682369C0
:101C100022F0C0021A433260CA06CFD53268636927
:101C200022F440721A4332608A06C9D53268A36929
:101C300022F440621A4332604A06C3D53268E3692F
:101C400022F440521A4332600A06BDD53268236A34
:101C500022F440421A433260CA05B7D53268636A3B
:101C600022F440321A4332608A03B1D57269A36A02
:101C700022F003021A4372618A05ABD53268E36A27
:101C800022F440221A4332604A050ED53268236B93
:101C900022F440121A43B3F5801F326005D156F882
:101CA0007C2C42F4801246F87C2C0A050ED5326852
:101CB000636B22F440021A43B3F5800F326005D102
:101CC00056F87C2C42F4801246F87C2CCA040ED5BF
:101CD0003268A36B22F040721A43B3F1807F326006
:101CE00005D156F87C2C42F4801246F87C2C8A04EC
:101CF0000ED53268E36B22F040621A43B3F1006FF5
:101D0000326005D156F87C2C42F4801246F87C2CC7
:101D10004A040ED53268236C22F040621A43B3F1B4
:101D2000006F326005D156F87C2C42F4801246F8E0
:101D30007C2C0A040ED53268636C22F040521A43A0
:101D4000B3F1805F326005D156F87C2C42F48032CA
:101D500046F87C2CCA030ED53268A36C22F04042B0
:101D60001A43B3F1804F326005D156F87C2C42F40F
:101D7000803246F87C2C49030ED57169E26C21F45F
:101D800040111143B2F5001F716105D156F87C1C5A
:101D900041F4801146F87C1C02B0BDE8F08100BF20
:101DA000B06810F4407010D0216D88420BD0B0683C
:101DB000B16820F4407041F48031B160B16821F421
:101DC0008031B160B060C0070CD1B068216D20F4E3
:101DD00040700843B0600020B8F1000F3FF5E3AE5B
:101DE000DBE600BFFFF75CFD054641F2883700BF28
:101DF000B0688007E9D4FFF753FD401BB842F7D91C
:101E0000C7E600002DE9F047002863D042F2000A3F
:101E1000C4F2020A0446DAF800000D4600F00F0092
:101E200081420CD9DAF8000020F00F002843CAF8EC
:101E30000000DAF8000000F00F00A8424AD1216843
:101E400041F20808C807C4F2020803D1880740F12C
:101E5000D080B5E0606858F8082C022838D00328F4
:101E60003CD1920136D5D8F80420D8F8043042F29B
:101E70000046C3F3031302F00302D8F804700133E1
:101E8000C0F2F406032A04BF41F20026C0F27A062B
:101E9000B6FBF3F2D8F80430C7F306277A43C3F34E
:101EA0004163022707EB4303B2FBF3F24BF200431B
:101EB000C0F2C4439A4259D9D8F8002012F0F00F6A
:101EC00049D0890752D5A16800294FD143E000BF0E
:101ED000910305D40120BDE8F08700BF5105F9D575
:101EE000D8F8001001F00C0104293FD0D8F80010F8
:101EF00001F00C01082939D0D8F8001001F00C01CC
:101F00000C2933D1D8F80410D8F8042042F2004745
:101F1000C2F3031201F00301D8F804300132C0F219
:101F2000F407032904BF41F20027C0F27A07B7FB88
:101F3000F2F1D8F80420C3F306235943C2F34162F7
:101F4000022303EB4202B1FBF2F14BF20042C0F27A
:101F5000C44291420AD9D8F80010082262F307114E
:101F60004FF00109C8F8001002E000BF4FF000096F
:101F7000D8F8001021F003010843C8F80000FFF76B
:101F80008FFC064641F28837D8F80000616800F0FF
:101F90000C00B0EB810F07D0FFF782FC801BB8422A
:101FA000F2D90320BDE8F0872168880708D4B9F189
:101FB000000F1ED0D8F8000020F0F00017E000BF9E
:101FC000480705D5D8F8000040F4E060C8F80000E4
:101FD000080706D5D8F80000072262F30D20C8F8DC
:101FE0000000D8F80000A26820F0F0001043C8F804
:101FF0000000DAF8000000F00F0085421BD2DAF88A
:10200000000020F00F002843CAF80000FFF748FC4A
:10201000064641F2883700BFDAF8000000F00F00F2
:10202000A84207D0FFF73CFC801BB842F4D903203C
:10203000BDE8F0872168480707D5D8F80000E268B6
:1020400020F4E0601043C8F80000080708D5D8F86D
:102050000000216920F4605040EAC100C8F8000087
:10206000D8F8000042F20041C0F2F40100F00C0088
:10207000042808462DD0D8F8000000F00C000828ED
:1020800041F20020C0F27A0023D0D8F8002002F0FC
:102090000C020C2A1CD1D8F80420D8F8043002F025
:1020A0000302C3F30313D8F804700133032A08BFF3
:1020B0000146B1FBF3F0D8F80410C7F30627C1F3CB
:1020C00041610222784302EB4101B0FBF1F000E0F4
:1020D0000020D8F8001047F2D872C1F30311C0F6FF
:1020E0000002515C40F2080201F01F0120FA01F1E8
:1020F00040F20000C2F200000068C2F2000211606B
:10210000BDE8F047FFF7F0BB40F2080041F20801DC
:10211000C2F20000C4F202010068096847F2E872E6
:10212000C1F30221C0F60002515C01F01F01C8405A
:102130007047000040F2080041F20801C2F20000BE
:10214000C4F202010068096847F2E872C1F3C221D3
:10215000C0F60002515C01F01F01C840704700004A
:1021600041F20C01C4F2020151F8040C42F20042A7
:10217000C0F2F40200F00C000428104608BF7047BB
:1021800051F8040C00F00C00082841F20020C0F2C5
:102190007A0025D051F8043C03F00C030C2B1CBF33
:1021A0000020704780B5D1F800C00B680CF0030C1C
:1021B000C3F3031E0B680EF1010EBCF1030F08BF41
:1021C00002460968B2FBFEF0C3F30623C1F3416186
:1021D0000222584302EB4101B0FBF1F0BDE8804020
:1021E00070470000002804BF012070472DE9F0412E
:1021F00082B00446007841F20006C007C4F202062D
:102200001ED1207880073DD42078000764D4207840
:10221000400700F187802078800600F1D980E569C9
:10222000002D00F04282B06800F00C000C2840F055
:102230003181012D40F08E81012002B0BDE8F08196
:10224000B06800F00C01F068082961D0032281F029
:102250000C0122EA00000844B0FA80F0400957D18E
:1022600061683068B1F5803F07D0B1F5A02F40F02C
:10227000E38040F480203060306840F4803030608B
:10228000E4E000BFB068F16800F00C00042871D0F1
:1022900001F0030180F00C0081F002010844B0FA63
:1022A00080F0400966D1E1683068002900F0E080E4
:1022B00040F480703060FFF7F3FA0546306840055F
:1022C00000F10A81FFF7ECFA401B0228F6D903203F
:1022D00002B0BDE8F08100BF6169D6F89400002922
:1022E00000F0948040F00100C6F89400FFF7D8FA9F
:1022F000054600BFD6F8940080073FF588AFFFF78A
:10230000CFFA401B0228F5D9032002B0BDE8F081C6
:10231000306880037FF575AF606800287FF471AF87
:102320003EE000BFB06D5FEAC00808D4B06D40F079
:102330008050B065B06D00F080500190019847F278
:102340000007C4F200073868C0052DD4386840F48F
:1023500080703860FFF7A4FA054600BF3868C005F2
:1023600022D4FFF79DFA401B0228F7D9032002B0C0
:10237000BDE8F0813068400501D5E06880B1706843
:10238000216920F0FE4040EA0160706040F20000E8
:10239000C2F200000068FFF7A7FA00283FF434AF4C
:1023A000012002B0BDE8F081A168D6F890000129B3
:1023B00008D0052940F0AE8040F00400C6F8900037
:1023C000D6F8900040F00100C6F89000AEE000BFE3
:1023D000A169D6F89800002900F0868040F001003D
:1023E000C6F89800FFF75CFA054600BFD6F89800DB
:1023F00080073FF514AFFFF753FA401B02284FF058
:102400000300F3D902B0BDE8F08100BF20F0010065
:10241000C6F89400FFF744FA054600BFD6F89400CA
:1024200080077FF5F4AEFFF73BFA401B0228F5D991
:10243000032002B0BDE8F08120F4803030603068C5
:10244000002920F48020306000F0BE80FFF728FAD9
:10245000054600BF306880033FF5D3AEFFF720FA92
:10246000401B6428F6D9032002B0BDE8F08100BF0C
:1024700020F480703060FFF713FA0546306840059D
:102480007FF5C2AEFFF70CFA401B02284FF00300A5
:10249000F4D9B7E7306820F080703060FFF700FAB9
:1024A000022D05460CD100BF3068800140F1B88094
:1024B000FFF7F6F9401B02284FF00300F4D9A1E71B
:1024C0003068800140F1EA80FFF7EAF9401B0228FA
:1024D0004FF00300F4D995E77068216920F0FE40C1
:1024E00040EA016070608FE620F00100C6F89800B5
:1024F000FFF7D6F9054600BFD6F8980080077FF5AC
:102500008EAEFFF7CDF9401B02284FF00300F3D940
:1025100078E700BF20F00100C6F89000D6F89000E0
:10252000002920F00400C6F890005DD0FFF7B8F94C
:10253000054641F2883700BFD6F89000800765D481
:10254000FFF7AEF9401BB842F6D9032002B0BDE850
:10255000F08100BFF068216A00F003028A427FF434
:102560001FAF626A6FF00F0300F0F00103EB02127D
:1025700091427FF415AFA16A00F4FE42B2EB012F45
:102580007FF40EAFE16A00F07842B2EBC16F7FF4E6
:1025900007AF226B0023CFF6E07303EA025200F488
:1025A000C001A2F5001291427FF4FAAE616B4FF0C8
:1025B0007E4202EA016100F0C06001F17E41884282
:1025C0007FF4EEAE71E000BFFFF76AF9054600BF89
:1025D000306880037FF515AEFFF762F9401B642871
:1025E0004FF00300F4D90DE7FFF75AF9054641F221
:1025F000883700BFD6F89000800707D5FFF750F95D
:10260000401BB8424FF00300F4D9FBE6B8F1000FCD
:102610003FF501AEB06D20F08050B065FBE500BF26
:10262000F06848F20C01C0F29F1104F1200700EAA3
:10263000010C8ECF6FF00F00D4E90C5400EB0210A8
:102640000022CFF6E07241EA0C0102EA055208438B
:10265000A2F500124FF07E4540EA032005EA04652A
:10266000104305F17E4540EAC7602843F0603068BA
:1026700040F080703060F06840F08070F060FFF7EC
:102680000FF90446306880010FD4FFF709F9001BE9
:1026900002284FF00300F5D9B4E600BFF0684FF60A
:1026A000FC71CFF6EE610840F060002002B0BDE89A
:1026B000F0810000002804BF01207047416A19B171
:1026C00000210161142104E04168B1F5827F02D04C
:1026D0001C2100224250B0B50025856290F85D10A3
:1026E00029B980F85C50044600F056F820460221D3
:1026F00080F85D100168D0F80CE00B68BEF5E06F63
:1027000023F040030B6098BF01254EF40063B3F53E
:10271000706F4FEA053C1CBF00258562D0E901546B
:10272000D0E9043205F4827504F404442C4403F027
:1027300002032344846902F00102C5691A4404F4C7
:1027400000731A4405F03803056A1A4405F0800343
:10275000856A1A4405F400531A430A600422436A46
:102760000EF4706502EA1442446B45EA0C0503F06E
:1027700010032A4304F008041A4322434A60CA693A
:1027800022F40062CA6100210122016680F85D2006
:10279000BDE8B04008467047F0B587B0006843F622
:1027A0000042C4F2000200219042CDE90511CDE9BA
:1027B000031102913CD043F20001C4F201018842AE
:1027C0005FD141F24C00C4F202004169022441F49D
:1027D000805141614169002501F4805101910199C5
:1027E0000168032641F0010101600168052701F03D
:1027F000010101910199016841F002010160006845
:1028000002A900F0020001900198A02002904FF070
:1028100090400394049505960697FEF761FF1020FB
:1028200002A9F1C140F20040C4F6000026E000BF5A
:1028300041F24C00C4F20200C26842F40042C2609D
:10284000C26802F400420192019A026842F0040256
:102850000260006800F00400019001984FF4E0501D
:1028600002900220CDE90301032005900620069086
:1028700040F20040C4F6000000F5806002A9FEF7B7
:102880002FFF07B0F0BD00002DE9F04381B01E46D8
:1028900015460F460446FFF703F894F85D1081468D
:1028A000012909D1002F4FF0010018BF002D0FD1D1
:1028B00001B0BDE8F08300BF6068B0F5827F0DD144
:1028C00004294FF00200F3D1A1680029EAD0EFE714
:1028D000002EEDD094F85C00012803D1022001B055
:1028E000BDE8F083012084F85C0094F85D000428C2
:1028F0001CBF052084F85D00002020662564A4F834
:102900004660A4F84460A763E687C4E91300206822
:10291000A687E1684268B1F5E06F22F48052134661
:1029200098BF03F58053012E88BF134643600268A9
:10293000520603D4026842F0400202606268731ECD
:10294000B2FA82F2B3FA83F3DDF8208052095B0910
:10295000B1F5E06F43EA02016CD931B137F8021BDF
:10296000C160A763E08F0138E087012518F10100FD
:1029700035D101E0FEF794FFE08F20B9B4F84600AE
:10298000002800F0CD802068816889070CD5E18F90
:1029900051B1012D08D1A16B002531F8022BC26085
:1029A000A163E18F0139E1878168C907E2D0B4F8FA
:1029B00046100029DED0C068216C012521F8020BE9
:1029C0002164B4F846000138A4F84600D2E700BFFD
:1029D000FEF766FFA0EB0900404580F09780E08F8E
:1029E00020B9B4F84600002800F09A802068816879
:1029F00089070CD5E18F51B1012D08D1A16B0025BC
:102A000031F8022BC260A163E18F0139E18781684F
:102A1000C907DDD0B4F846100029D9D0C068216CB0
:102A2000012521F8020B2164B4F846000138A4F80E
:102A30004600CDE789B1E18F02294FF6FE7103D33D
:102A400037F8022BC26004E03A7801310273A06BC0
:102A5000471CA763E08F0844E087012608F10105C1
:102A6000E08F18B9B4F84600002859D02068816872
:102A7000890719D5E18FB9B1012E15D1E28FA16B6C
:102A8000022A07D331F8022BC260A163E18F023919
:102A900008E000BF09780173A16B20680131A163D0
:102AA000E18F01390026E1878168C90726D0B4F893
:102AB000461019B3B4F84610022913D3C168226C2A
:102AC00022F8021B2264B4F846100239A4F846101A
:102AD000B4F84610012910D8416841F48051416092
:102AE0000BE000BF007B216C0870206C013020647B
:102AF000B4F846000138A4F846000126FEF7D0FEDF
:102B0000002DADD0A0EB09004045A9D3012084F8E9
:102B10005D00002084F85C00032001B0BDE8F08374
:102B200020464FF4C05142464B4601F05FF968B968
:102B3000204641464A4601F019FA38B920464FF47A
:102B4000C06142464B4601F051F968B1206E40F039
:102B50002000206620202066002084F85C000120F0
:102B600001B0BDE8F08300BF012084F85D000020C3
:102B700084F85C00206E002818BF012001B0BDE879
:102B8000F0830000411E0020B0EB116F1CBF01203C
:102B900070474EF21002CEF2000251604EF6235101
:102BA000CEF20001F0230B70072190601160704796
:102BB00070470000704700007047000090F83C200C
:102BC000012A04BF02207047B0B5D1E90232D1E931
:102BD00000CE22F47C5223F4705343EA020448F2FC
:102BE000FF73CEF6F0730EEA0302224303F500648E
:102BF00004EA0C0442EA040C0C6903F5C0522240BA
:102C00004C6942EA0C02224303F5605422400C6BEB
:102C100003F5F04323401A438B6940F2000CCC6962
:102C2000CEF6FF7C0CEA034C1443026842F60043E4
:102C3000C4F201039A4244EA0C030BD045F20004AB
:102C4000C4F20104A24205D043F20044C4F20104DC
:102C5000A24217D14FF6FF74CDF60F4403EA040EDB
:102C6000D1E9084CD1E90A310025CDF6F04505EA55
:102C7000035343EA0E0324F008552B432CF0005570
:102C80002B430B430021536480F83C100020B0BD5F
:102C900070470000704700007047000090F83C202B
:102CA000012A4FF0020266D070B580F83D2002681C
:102CB00042F6004C54689368C4F2010C45F2000ED1
:102CC0006245C4F2010E18BF72452BD14D6824F441
:102CD00070042C434FF68F75CFF6FF550E682C40CD
:102CE00042F6FF35C4F201053443AA4254600DDCBC
:102CF00040F2FF76C4F20006B2421BDCB2F1804F14
:102D00002CD040F20046C4F2000625E043F6FF74E2
:102D1000C4F20104A24219DC62451FD043F200460E
:102D200018E000BF43F20045C4F20105AA42CDD02D
:102D3000D0E700BF40F60006C4F20006B2420DD054
:102D400040F60046C4F2000606E000BF724505D01A
:102D500044F20006C4F20106B24204D1896823F0AD
:102D60008003194391600121002280F83D1080F812
:102D70003C20BDE8704010467047000070470000DE
:102D800070470000F0B581B004460068C568066968
:102D9000B10717D515F0020114D06FF002010161DF
:102DA000012121778069800704D02046FFF7E8FFE2
:102DB00006E000BF204600F0CBF8204600F01CFBE8
:102DC00000202077700719D515F0040016D0206870
:102DD0006FF00401016102212177806910F4407FC6
:102DE00004D02046FFF7CCFF06E000BF204600F0ED
:102DF000AFF8204600F000FB00202077300717D501
:102E000015F0080014D020686FF00801016104215A
:102E10002177C069800703D02046FFF7B1FF05E0A6
:102E2000204600F095F8204600F0E6FA00202077D2
:102E3000F00619D515F0100016D020686FF01001BB
:102E4000016108212177C06910F4407F04D0204639
:102E5000FFF796FF06E000BF204600F079F8204615
:102E600000F0CAFA00202077F00718BF15F0010023
:102E700006D020686FF001010161204600F080FB60
:102E800016F4025F05F0800718BF002F02D1F0058D
:102E900009D410E020686FF4025101612046FFF769
:102EA00089FEF00507D537B120686FF480710161A4
:102EB0002046FFF77DFE700609D515F0400006D0CC
:102EC00020686FF040010161204600F05BFBB00616
:102ED00009D515F0200006D020686FF020010161AF
:102EE0002046FFF769FEF00209D515F4801006D0E0
:102EF00020686FF4801101612046FFF7CBFEB0021D
:102F000009D515F4001006D020686FF40011016196
:102F10002046FFF7BDFE700209D515F4800006D0EB
:102F200020686FF4800101612046FFF7B5FE300292
:102F30000CD515F4000009D021686FF4000220467A
:102F40000A6101B0BDE8F040FFF718BF01B0F0BD65
:102F50007047000090F83C30012B04BF02207047FE
:102F60004FEAB202052A00F2ED812DE9F041DFE8D7
:102F700012F0070047019300ED0055009F0100BFCC
:102F800003681D6A1A6AA3F1804622F001021A62E0
:102F90001A46D3F8048052F818CF8F68A6F59636F3
:102FA000D1F800E025F002054FEAB626092E45EAE1
:102FB00007050BD80127B74040F2E52427421FBF81
:102FC000CC6825F00C0524F004042543092E0CD808
:102FD0000124B44040F2E52634421FBFD1E9054642
:102FE00028F440773C4344EA06084FF68C74CFF649
:102FF000FE740CEA040747EA0E07C3F804809F61D9
:103000004F6809695F631D629F6947F008079F6108
:103010009F6927F004079F6188E100BF0368D3F828
:1030200020C01A6AA3F1804722F480321A621A463D
:10303000A7F596375D6852F8508FD1F800E08E689A
:103040004FEAB727092F0AD80124BC4040F2E527F0
:103050003C421EBF4C6925F4803545EA04252CF41A
:10306000003747EA06474FF68C76CFF6FE760336F2
:1030700006EA080646EA0E065D601E654E680969A6
:103080009E641F621F6D47F008071F651F6D27F0C4
:1030900004071F654AE100BF036842F600461D6A47
:1030A0001A6AC4F2010622F480721A621A46D3F830
:1030B00004C052F81CEFB3428E68D1F8008025F4AA
:1030C000007545EA06250BD045F20006C4F201065C
:1030D000B34205D043F20046C4F20106B34207D121
:1030E000CE6840F2FF47360225F44065BE433543C3
:1030F000A3F18046A6F596364FEAB626092E0DD8DE
:10310000012707FA06F640F2E5273E421FBFD1E944
:1031100005672CF44054374344EA071C4FF68C747F
:10312000CFF6FE740EEA040747EA0807C3F804C0A6
:10313000DF614F680969DF631D62DF6947F00807D7
:10314000DF61DF6927F00407DF61EFE0036842F623
:1031500000461D6A1A6AC4F2010622F480521A62FD
:103160001A46D3F804C052F81C8FB3428E68D1F8C7
:1031700000E025F4005545EA06350BD045F200067F
:10318000C4F20106B34205D043F20046C4F2010680
:10319000B34207D1CE6844F6FF77360325F44045A5
:1031A000BE433543A3F18046A6F596364FEAB626D0
:1031B000092E0DD8012707FA06F640F2E5273E4210
:1031C0001FBFD1E905672CF44044374344EA871C0C
:1031D00048F6FF44CFF6FF6404EA080444EA0E27E9
:1031E000C3F804C0DF614F6809691F641D62DF69AD
:1031F00047F40067DF61DF6927F48067DF6194E0EF
:10320000036842F600461D6A1A6AC4F2010622F0FB
:1032100010021A621A465C6852F818CFB3428E68E0
:10322000D1F800E025F0200545EA06150BD045F25F
:103230000006C4F20106B34205D043F20046C4F2D0
:103240000106B34207D1CE686FF0400725F0C005F4
:1032500007EA06163543A3F18046A6F596364FEAEF
:10326000B626092E0DD8012707FA06F640F2E52703
:103270003E421FBFD1E9056724F440643E4344EA5F
:10328000860448F6FF46CFF6FF660CEA060747EAD3
:103290000E275C609F614F6809699F631D629F698B
:1032A00047F400679F619F6927F480679F613CE056
:1032B0000368D3F820C01A6AA3F1804722F4801271
:1032C0001A621A46A7F596375D6852F8508FD1F802
:1032D00000E08E684FEAB727092F0AD80124BC40C6
:1032E00040F2E5273C421EBF4C6925F4802545EAA3
:1032F00084252CF4001747EA065748F6FF46CFF618
:10330000FF6606F5407606EA080646EA0E265D6088
:103310001E654E680969DE641F621F6D47F4006711
:103320001F651F6D27F480671F6509021368194325
:1033300011600021BDE8F041002280F83C200846E1
:10334000704700BF0121002280F83C2008467047EA
:10335000002804BF0120704710B5044690F83D00D6
:1033600028B9002084F83C00204600F023F8022011
:1033700084F83D002068211D01F00EF8012084F83A
:10338000480084F83E0084F83F0084F8400084F848
:10339000410084F8420084F8430084F8440084F833
:1033A000450084F8460084F8470084F83D0000207A
:1033B00010BD0000006842F60041C4F201018842DD
:1033C00018BF704780B582B041F26000C4F20200BD
:1033D0000168002241F4006101600068002100F4EE
:1033E0000060019001981A20FEF7D2FA1A2002B06C
:1033F000BDE88040FEF7BABA7047000080B5D9B189
:103400000B1F4FEAB30E43224FF03F0CBEF1040FE7
:1034100038BF0CEBB302825C012A1CBF012080BDC7
:10342000BEF1030F1ED8DFE80EF00319111500BF1F
:10343000022280F83F2018E090F83E20012A1CBFAD
:10344000012080BD022280F83E200EE0022280F89A
:1034500041200AE0022280F8422006E0022280F8A1
:10346000402002E0022280F84320026801F01F01A0
:103470000120136A00FA01F18B431362136A0B43B4
:10348000A2F18041A1F596314FEAB12107291362DB
:1034900058D8884010F0E50F54D0506C42F6FF31F8
:1034A000C4F2010140F400408A4250640EDC40F254
:1034B000FF70C4F20000824218DCB2F1804F2DD0C0
:1034C00040F20040C4F2000026E000BF43F6FF7067
:1034D000C4F20100824215DC42F60040C4F2010051
:1034E00082421BD043F2004014E000BF40F60000CF
:1034F000C4F20000824211D040F60040C4F2000045
:103500000AE000BF45F20000C4F20100824205D08B
:1035100044F20000C4F2010082420CD190680721FD
:10352000C0F20101014006294FF0000008D0B1F5BA
:10353000803F08BF80BD106840F00100106000208F
:1035400080BD00BF42F6FF30C4F201008242AEDD12
:1035500043F6FF70C4F201008242BDDD44F2000078
:10356000C4F201008242D9D045F20000C4F2010049
:103570008242E0D1506C40F400405064CEE700003D
:10358000704700007047000090F88410012904BFC4
:10359000022070472421C0F8881001680A680B686F
:1035A00022F0005223F001030B60002343660A60FF
:1035B0002021C0F8881080F8843000207047000077
:1035C00090F88420012A04BF02207047B0B524225D
:1035D000C0F888200268D0F864E0D2F800C0136810
:1035E000BEF1000F23F001031360936823F06063C2
:1035F00041EA0301916019D09368916847F6180E6B
:10360000490FC0F6000E47F620051EF80140C0F62F
:103610000005695CC3F34263E400B4FBF1F11EF8FA
:103620000340EB5CE500B5FBF3F301E0012101236E
:10363000A0F86A102021A0F86830C2F800C0C0F8D5
:103640008810002180F884100020B0BD90F88420FC
:10365000012A04BF02207047B0B52422C0F8882098
:103660000268D0F864E0D2F800C01368BEF1000F21
:1036700023F001031360936823F0604341EA0301E0
:10368000916019D09368916847F6180E490FC0F6FB
:10369000000E47F620051EF80140C0F60005695CE3
:1036A000C3F34263E400B4FBF1F11EF80340EB5CAA
:1036B000E500B5FBF3F301E001210123A0F86A1056
:1036C0002021A0F86830C2F800C0C0F8881000219E
:1036D00080F884100020B0BD10B5D0B10446D0F8F9
:1036E000880028B9002084F88400204600F026F8DD
:1036F0002420C4F888002068A16A026822F0010230
:10370000026011B1204600F0F1FE204601F018F8E9
:1037100010B1012010BD00BF2168486820F490401E
:103720004860886820F02A008860086840F001023C
:1037300020460A60BDE8104000F04CBFB0B59CB018
:10374000044602A8002508304C211B95CDE91955E7
:10375000CDE91755FCF7ADFE206843F60001C4F231
:103760000101884202D01CB0B0BD00BF0120CDE9EC
:10377000020502A8FEF7DAF9002818BFFDF7A4F841
:1037800041F24C00C4F20200416941F480414161C0
:10379000416901F4804101910199016841F00401FE
:1037A0000160006817A900F0040001900198302022
:1037B0001790022018900020CDE9190007201B90D7
:1037C00040F60000C4F60000FDF78AFF1CB0B0BD53
:1037D000FEE7000010B592B0002468463C21119429
:1037E000CDE90F44FCF765FE41F6D840C2F2000077
:1037F0004FF0A04101234FF0040C4FF4403280E819
:103800001600C0E90344C0E9053C8483036280F8E4
:10381000244080F83840C46380F84040FDF7D2FD72
:10382000002818BFFDF750F841F6D840C2F200005A
:103830000FA90F94FDF78AFB002818BFFDF744F885
:103840000220C0F230400090092001900120029037
:103850007F2003900420049000200221059008910D
:10386000ADF824008DF8260080218DF8300041F657
:10387000D840CDE90A11C2F200006946FDF72CF8E4
:10388000002818BFFDF720F840F20F10019041F614
:10389000D840C2F200006946FDF71EF8002818BFA4
:1038A000FDF712F812B010BD2DE9F04387B00027E4
:1038B00041F24C000697CDE90477CDE90277C4F2D6
:1038C0000200016840F2004941F004010160016812
:1038D000C4F6000901F0040101910199016809F59C
:1038E000806541F0200101600168002201F02001A3
:1038F0000191019901684FF4404641F001010160D6
:10390000016801F0010101910199016841F0020192
:10391000016000684FF4404100F0020001900198FE
:103920002846FDF7B7FF4846052100224FF005085D
:10393000FDF7B0FF029602AE012428463146CDE9DC
:1039400003470597FDF7CCFE032005904846314616
:10395000CDE902840497FDF7C3FE07B0BDE8F0830C
:10396000B0B541F6445043F20001C2F20000C4F287
:1039700001014FF4827200234FF4706C4FF0010E7E
:103980004FF40074182580E80E100721C0E9043EAA
:10399000C0E90645C0E90833C0E90A31C0E90C3383
:1039A000FEF788FE002808BFB0BDBDE8B040FCF7B8
:1039B0008BBF0000B0B541F6A85043F60041C2F2FB
:1039C0000000C4F200014FF4827200234FF4706CC7
:1039D0004FF0010E4FF40074302580E80E100721DF
:1039E000C0E9043EC0E90645C0E90833C0E90A3130
:1039F000C0E90C33FEF75EFE002808BFB0BDBDE88D
:103A0000B040FCF761BF000070B59EB042F60045C3
:103A1000002401A83421C4F201051494CDE9124414
:103A2000CDE91044CDE90E44FCF743FD41F60C60AE
:103A3000C2F20000202640F64D0101228023C0E999
:103A40000054C0E90261C0E904428361FFF780FCD1
:103A5000002818BFFCF738FF41F60C60C2F20000E6
:103A600015A9CDE915641794FFF718F9002818BFB8
:103A7000FCF72AFF60200E9040F226400F900020B5
:103A80000421CDE91000CDE91210149041F60C602C
:103A9000C2F200000EA90022FFF75CFA002818BF4E
:103AA000FCF712FF41F60C60C2F200000EA90422DE
:103AB000FFF750FA002818BFFCF706FF41F60C602C
:103AC000C2F200000EA90822FFF744FA002818BF2E
:103AD000FCF7FAFE00264FF4005041F60C64CDE9E5
:103AE00006064FF00070C2F20004CDE90A0601A9F3
:103AF00020460596CDE90366CDE90166CDE9086665
:103B0000CDE90C66FFF75AF8002818BFFCF7DCFE79
:103B100020681D96A842CDE91B661A96199601D019
:103B20001EB070BD41F24C00C4F20200016841F0C9
:103B300001010160006819A900F0010018901898AF
:103B40004FF4E060199002201A9000201B9003208F
:103B50001C9006201D904FF09040FDF7C1FD1EB057
:103B600070BD000080B541F6586043F60001C2F216
:103B70000000C4F2010100234FF00C0C4FF4E132BD
:103B800080E80E00C0E90333C0E905C3C0E907338C
:103B9000C0E90933FFF7A0FD002818BFFCF794FE29
:103BA00041F65860C2F200000021FFF74FFD0028E7
:103BB00018BFFCF789FE41F65860C2F200000021F0
:103BC000FFF7FEFC002818BFFCF77EFE41F65860A8
:103BD000C2F20000FFF7D8FC002808BF80BDBDE896
:103BE0008040FCF771BE0000FEE70000F0B581B038
:103BF0002DED048B00F024FA6420FDF75DFD41F605
:103C0000EC64C2F200040A20208041F60C6041F608
:103C1000D841C2F20000C2F200010422C4E96301EB
:103C200041F64451A4F83C2140F20042C2F20001A6
:103C300004F59A70C4F60002C4E94D12FCF73AFD8F
:103C40004CF6CD40C3F64C700021C4E903014DF29F
:103C50000000002245F6D133C4F20450C4F24012F1
:103C6000C4F29933C4E90E302264002000230022FC
:103C700000259FED378A9FED379AC4F2C00040F2CD
:103C8000000CC4F2FA3344F2000ECCF2C002CCF2C3
:103C90002015002644F20007DFED2C0AC4F2201C98
:103CA000C4F29C5ECCF2FA36CCF29C57C4E92053A5
:103CB00040F20713C4E91810C4E91A0204F1940091
:103CC000B0EE040AB0EE481AF0EE491AC4E9226ECA
:103CD000C4F890706380616084F84C10C4E91411DA
:103CE000A165C4E91C2CC4E91EC500F045F89FED90
:103CF0001A0ADFED1A0A04F1BC00B0EE481AF0EE21
:103D0000491A00F039F89FED160ADFED160ADFEDCB
:103D1000161A04F1E400B0EE481A00F02DF8DFEDB9
:103D2000130ADFED131A04F58670B1EE000AB0EE47
:103D3000481A00F021F8204602F082F92046BDEC36
:103D4000048B01B0BDE8F04002F084B9BC74933B31
:103D500000000000000096436666064052499D3A06
:103D60005EBAC93DB37BF23A0000C843A69B443C0F
:103D700000004843FEE7000080EC030AB1EE610A50
:103D80000021C0ED061A80ED070AC0E90311416168
:103D90007047000090ED051A30EEC00A90ED062A3B
:103DA00030EE011AC168B4EE421AF1EE10FA016168
:103DB00080ED030A80ED051A06DC90ED072AB4EECB
:103DC000421AF1EE10FA03DAB0EE421A80ED052A3B
:103DD00090ED012A90ED003A22EE011A23EE000A3E
:103DE00030EE010A70470000704700002DE9F047EF
:103DF00082B000261F4690460D4681468DF803602E
:103E0000FDF74EFD381A00EB0807FDF749FD40F2BB
:103E10000801C2F20001096823225143090DD9F8B3
:103E2000004079430191A168294235D0824618F1BA
:103E3000010035D0B5F5C06F1AD100BF207B8DF8D9
:103E400003009DF80300FDF72BFDA0EB0A00B8422C
:103E50005ED2019801990028A1F101010191D9F8E0
:103E60000010896808BF074611F4C06FE6D112E060
:103E7000FDF716FDA0EB0A00B84249D2019801995E
:103E80000028A1F101010191D9F80010896808BF4B
:103E900007462942ECD10026304602B0BDE8F08743
:103EA0000026B5F5C06F25D1207B8DF803009DF865
:103EB0000300A06810F4C06FEDD0207B8DF80300E4
:103EC0009DF80300A06810F4C06FE4D0207B8DF84B
:103ED00003009DF80300A06810F4C06FDBD0207BC6
:103EE0008DF803009DF80300A06810F4C06FDBD1CB
:103EF000D2E700BFA0682842CDD0A0682842CAD02F
:103F0000A0682842C7D0A0682842F3D1C4E700BF08
:103F1000D9E900014268B1F5827F22F0E0024260F7
:103F20000BD1D9F80810B1F5004F02D0B1F5806F70
:103F300003D1016821F040010160D9F82810B1F5E2
:103F4000005F07D1016821F400510160016841F46C
:103F500000510160012089F85D00002089F85C00B3
:103F60000326304602B0BDE8F0870000F0B581B00E
:103F700015460E460446FDF793FC281A8719FDF7EF
:103F80008FFC40F20801C2F200010968C1F3CB3195
:103F90007943009121688A68120622D50546701C73
:103FA00015D000BFFDF77CFC401BB8421CD2009826
:103FB00000990028A1F1010100912168896808BFDA
:103FC00007460806EED40CE08868000609D5886824
:103FD000000606D58868000644BF88685FEA00606E
:103FE000F2D4002001B0F0BDD4E900014268B1F57F
:103FF000827F22F0E00242600AD1A168B1F5004F51
:1040000002D0B1F5806F03D1016821F04001016059
:10401000A16AB1F5005F07D1016821F40051016088
:10402000016841F400510160012084F85D00002026
:1040300084F85C00032001B0F0BD00007047000070
:104040002DE9F04383B040F20045C4F6000505F5C4
:10405000806840464FF480410122FDF71BFC4FF47D
:104060007A704FF47A79FDF727FB40464FF4004110
:1040700000224FF400470024FDF70CFC0A20FDF756
:104080001BFB4FF4A150ADF80A0028460121002285
:10409000ADF80840FDF7FEFB41F6A856C2F2000657
:1040A0000DF10A0102AA30460123CDF80090FEF777
:1040B000EBFB284601210122FDF7ECFB0120FDF777
:1040C000FBFA41F65510ADF80A00284601210022FE
:1040D000ADF80840FDF7DEFB0DF10A0102AA3046FB
:1040E0000123CDF80090FEF7CFFB284601210122E5
:1040F000FDF7D0FB0120FDF7DFFA42F25550ADF895
:104100000A00284601210022ADF80840FDF7C2FB55
:104110000DF10A0102AA30460123CDF80090FEF706
:10412000B3FB284601210122FDF7B4FB0120FDF776
:10413000C3FA42F66C10ADF80A00284601210022AD
:10414000ADF80840FDF7A6FB0DF10A0102AA3046C2
:104150000123CDF80090FEF797FB284601210122AC
:10416000FDF798FB0120FDF7A7FA43F2C320ADF855
:104170000A00284601210022ADF80840FDF78AFB1D
:104180000DF10A0102AA30460123CDF80090FEF796
:104190007BFB284601210122FDF77CFB0120FDF776
:1041A0008BFA4FF49670FDF787FA2846012100221A
:1041B000ADF80A70ADF80840FDF76CFB0DF10A018F
:1041C00002AA30460123CDF80090FEF75DFB284699
:1041D00001210122FDF75EFB0120FDF76DFABDF81C
:1041E000080040F2A807C2F2000738804FF40840E8
:1041F000ADF80A00284601210022ADF80840FDF77D
:1042000049FB0DF10A0102AA30460123CDF80090C6
:10421000FEF73AFB284601210122FDF73BFB012076
:10422000FDF74AFABDF80800012178804FF41040EC
:10423000ADF80A0028460022ADF80840FDF72AFB39
:104240000DF10A0102AA30460123CDF80090FEF7D5
:104250001BFB284601210122FDF71CFB0120FDF775
:104260002BFABDF808000121B8804FF41840ADF8D2
:104270000A0028460022ADF80840FDF70BFB0DF1BF
:104280000A0102AA30460123CDF80090FEF7FCFA9D
:10429000284601210122FDF7FDFA0120FDF70CFA65
:1042A000BDF808000121F8804FF42040ADF80A0065
:1042B00028460022ADF80840FDF7ECFA0DF10A019E
:1042C00002AA30460123CDF80090FEF7DDFA284619
:1042D00001210122FDF7DEFA0120FDF7EDF9BDF81D
:1042E0000800012138814FF42840ADF80A00284623
:1042F0000022ADF80840FDF7CDFA0DF10A0102AA3F
:1043000030460123CDF80090FEF7BEFA2846012181
:104310000122FDF7BFFA0120FDF7CEF9BDF8080034
:10432000012178814FF43040ADF80A002846002280
:10433000ADF80840FDF7AEFA0DF10A0102AA3046C9
:104340000123CDF80090FEF79FFA284601210122B3
:10435000FDF7A0FA0120FDF7AFF9BDF808004FF412
:104360000041B88140460122FDF794FA03B0BDE850
:10437000F0830000FDF79ABA4EF68850CEF20000A6
:10438000016841F4700101607047000041F60C6063
:10439000C2F20000FEF7F6BC40F6FF330268C4F23A
:1043A000000343F2FF3C9842C4F2010C0ADD604571
:1043B0002EDC40F60043C4F20003984234D042F6AB
:1043C00000432DE0B0F1804F2ED040F20043C4F204
:1043D0000003984228D040F60003C4F2000398423C
:1043E00022D0604526DC40F2FF73C4F200039842FD
:1043F00036DD40F60003C4F20003984246D040F692
:104400000043C4F20003984240D042F6004339E032
:1044100045F20003C4F20103984205D043F2004381
:10442000C4F201039842DCD14B6822F070021A43B7
:104430006045D8DD44F2FF33C4F20103984219DD30
:1044400044F20043C4F2010398421FD045F2000336
:10445000C4F20103984219D044F6000312E000BFF1
:10446000B0F1804F12D040F20043C4F200039842F2
:104470000CD00FE043F20043C4F20103984205D090
:1044800044F20003C4F20103984203D1CB6822F442
:1044900040721A4380B54B6922F0800E8A6843EA65
:1044A0000E03D1F800C00360C262A0F18042A2F501
:1044B00096324FEAB222092AC0F828C0BDE88040EF
:1044C00008D8012303FA02F240F2E5231A421CBF86
:1044D00009690163012141610169C90708BF70478A
:1044E000016921F00101016170470000816A0A073A
:1044F0000CD4CA0715D18A071ED44A0727D4CA0686
:1045000030D48A0639D44A0642D457E00268D0F83B
:1045100038C0536823F4004343EA0C035360CA07CE
:10452000E9D00268D0F82CC0536823F4003343EA82
:104530000C0353608A07E0D50268D0F830C0536896
:1045400023F4803343EA0C0353604A07D7D502684B
:10455000D0F834C0536823F4802343EA0C0353603B
:10456000CA06CED50268D0F83CC0936823F48053C5
:1045700043EA0C0393608A06C5D50268D0F840C0B0
:10458000936823F4005343EA0C0393604A0615D55D
:10459000D0F800C0436CDCF80420B3F5801F22F48F
:1045A000801242EA0302CCF8042007D1DCF8042090
:1045B000836C22F4C0021A43CCF80420090658BFC9
:1045C00070470168C06C4A6822F4002210434860BA
:1045D00070470000B0B582B004460020C4F89000D7
:1045E000FDF75EF9216805460A68120737D56FF0B6
:1045F0007E4C20464FF4001100222B46CDF800C01F
:1046000000F0F8F950B300BF206850E8000F2168AF
:1046100020F0800041E80002DAB1206850E8000F85
:10462000216820F0800041E8000292B1206850E843
:10463000000F216820F0800041E800024AB12068A4
:1046400050E8000F216820F0800041E80002002AB5
:10465000DAD10320202188226BE000BF216808689E
:1046600040075DD56FF07E4C20464FF4800100225C
:104670002B46CDF800C000F0BDF9002850D000BF97
:10468000206850E8000F216820F4907041E8000293
:10469000BAB3206850E8000F216820F4907041E818
:1046A000000272B3206850E8000F216820F4907077
:1046B00041E800022AB3206850E8000F216820F486
:1046C000907041E80002002ADAD11AE0206850E830
:1046D000020F216820F0010041E80202DAB12068EF
:1046E00050E8020F216820F0010041E8020292B177
:1046F000206850E8020F216820F0010041E8020222
:104700004AB1206850E8020F216820F0010041E81A
:104710000202002ADAD1032020218C2209E000BF06
:104720002020C4F88800C4F88C00002170220020EA
:10473000E166A150002184F8841002B0B0BD0000F1
:1047400070B5054605F108041ECC0068194341EA1E
:104750000403EE69046846F6F311CCF6FF712140BC
:10476000194331430160416848F2000C21F4405183
:1047700011434160AA69C4F2000C60451CBF296A5C
:104780000A4381684FF2FF43C1F2FF1319401143FE
:104790008160C16AD5F824E021F00F0141EA0E01E1
:1047A000C16244F6FF71C4F2000188424FF0100369
:1047B00018DC44F20041C4F20001884228D044F6DB
:1047C0000001C4F20001884232D044F60041C4F234
:1047D0000001884242D141F28801C4F20201096815
:1047E0008B0933E045F20001C4F20001884217D082
:1047F000604525D043F60001C4F2010188422DD165
:1048000041F28801C4F202010B6876A222E000BFE7
:1048100041F28801C4F2020109688B0816E000BF6A
:1048200041F28801C4F2020109680B0A0EE000BFE0
:1048300041F28801C4F2020109680B0906E000BFD9
:1048400041F28801C4F2020109688B0A47F60802A6
:10485000C0F6000203F0030152F82130604542F235
:104860000040C0F2F40015D0B6F5004F22D1082B5D
:104870004FF0010100F2AD80DFE803F0065C74AB9D
:1048800064ABABAB720000BFFDF73EFC002840F00C
:104890005D809AE0082B4FF0010100F29A80DFE87A
:1048A00003F0059825981B9898982300FDF72CFC99
:1048B000B0B98AE0082B4FF0010100F28A80DFE8EE
:1048C00003F0053D6F88498888886D00FDF71CFC62
:1048D000002842D179E000BFFDF742FC002874D0E7
:1048E000D5F824E002E000BF4FF4004047F2F07139
:1048F000C0F6000131F81E106A68B0FBF1F002EB5F
:10490000420188424FF0010163D31303984260D8FB
:10491000010E000210EB520041F100010023FBF7F1
:10492000E1FC4FF60052A0F54071C0F20F02914237
:1049300049D34DE0FDF7FEFB40B946E0FDF7FAFB39
:1049400058B942E0FDF70CFC00283ED0D5F824E031
:1049500008E000BFFDF704FCB8B3D5F824E01FE081
:104960004FF4004047F2F071C0F6000131F81E101C
:104970006A68B0FBF1F0510801EB4000B0FBF2F0C7
:104980004FF6EF72A0F11001914221D84FF6F0716D
:104990000140C0F34200084415E000BF4FF400405E
:1049A00047F2F071C0F6000131F81E104FF6EF72B9
:1049B000B0FBF1F0696800EB5100B0FBF1F0A0F141
:1049C0001001914204D82968C860002101E000BFAD
:1049D00001214FF00110A866002208466A67AA6705
:1049E00070BD00BF010000000400000002000000D4
:1049F000080000002DE9F041804600681546C269B4
:104A00000E461140891BB1FA81F149098D4223D12B
:104A1000069C2CB3611C29D1C1693140891BB1FAB4
:104A200081F149098D4217D1C1693140891BB1FA21
:104A300081F149098D420FD1C1693140891BB1FA19
:104A400081F149098D4207D1C1693140891BB1FA11
:104A500081F149098D42DFD00020BDE8F08100BF1F
:104A6000FCF71EFF0320BDE8F08100BF1F4607E0F2
:104A7000C0693040801BB0FA80F040098542EBD11C
:104A8000FCF70EFFC01BA04200F2AE80D8F8000079
:104A900001684907ECD5402EEAD0802EE8D0C169E4
:104AA000090700F1A580C1690905E1D54FF400614E
:104AB0000162D8F8000050E8000FD8F8001020F488
:104AC000907041E800020AB3D8F8000050E8000FE7
:104AD000D8F8001020F4907041E80002B2B1D8F884
:104AE000000050E8000FD8F8001020F4907041E862
:104AF00000025AB1D8F8000050E8000FD8F80010B2
:104B000020F4907041E80002002AD2D14FF6FE70E6
:104B1000CEF6FF70D8F8001051E8021FD8F8002038
:104B2000014042E80213F3B1D8F8001051E8021F27
:104B3000D8F80020014042E80213A3B1D8F80010D1
:104B400051E8021FD8F80020014042E8021353B197
:104B5000D8F8001051E8021FD8F80020014042E8C0
:104B60000213002BD6D1D8F86C0001282CD1D8F82C
:104B7000000050E8000FD8F8001020F0100041E8C5
:104B800000020AB3D8F8000050E8000FD8F800106F
:104B900020F0100041E80002B2B1D8F8000050E85F
:104BA000000FD8F8001020F0100041E800025AB1C0
:104BB000D8F8000050E8000FD8F8001020F01000DE
:104BC00041E80002002AD2D120200021C8F88C0040
:104BD000C8F86C10C8F87410C8F89000032088F862
:104BE0008410BDE8F08100BF0320BDE8F08100BF64
:104BF00008210162D8F8000050E8000FD8F8001032
:104C000020F4907041E800020AB3D8F8000050E8A0
:104C1000000FD8F8001020F4907041E80002B2B103
:104C2000D8F8000050E8000FD8F8001020F4907079
:104C300041E800025AB1D8F8000050E8000FD8F857
:104C4000001020F4907041E80002002AD2D14FF603
:104C5000FE70CEF6FF70D8F8001051E8021FD8F8A9
:104C60000020014042E80213F3B1D8F8001051E8E7
:104C7000021FD8F80020014042E80213A3B1D8F87F
:104C8000001051E8021FD8F80020014042E802134A
:104C900053B1D8F8001051E8021FD8F800200140A5
:104CA00042E80213002BD6D1D8F86C0001282CD191
:104CB000D8F8000050E8000FD8F8001020F01000DD
:104CC00041E800020AB3D8F8000050E8000FD8F815
:104CD000001020F0100041E80002B2B1D8F8000046
:104CE00050E8000FD8F8001020F0100041E8000252
:104CF0005AB1D8F8000050E8000FD8F8001020F0A2
:104D0000100041E80002002AD2D12020C8F88C000F
:104D100000200821C8F86C00C8F87400C8F890108A
:104D200088F884000120BDE8F0810000FEE7000063
:104D300010B540F27004C2F2000420680130206017
:104D4000FCF7AEFD6168401AB0F57A7F02D3FCF73C
:104D5000A7FD60600A20BDE81040FCF7ADBC000074
:104D600080B54FF4FA70FCF7A7FCFEF73FFFC820B0
:104D7000BDE88040FCF7A0BC2DE9F0412DED068B8D
:104D8000044600204FF07E5140F27807C4E9030149
:104D9000C2F2000797ED070A9FED9D9A0120B4EE3D
:104DA000490A04F59A75F1EE10FAA07084ED530AE1
:104DB0001EDD9FED981A00BF30EE010AB4EE490ADD
:104DC000F1EE10FA14DD30EE010AB4EE490AF1EE0C
:104DD00010FA0DDD30EE010AB4EE490AF1EE10FAD8
:104DE00006DD30EE010AB4EE490AF1EE10FAE3DC1A
:104DF0009FED891A84ED020A20EE010A4AF2EA5870
:104E000010EE100AC0F2010802F0CCFB41EC180BC6
:104E1000B0EE480AF0EE680A01F07EFA51EC100B91
:104E200001F00AFFB0EE480AF0EE680A06460AEE04
:104E3000100A606401F00CFA51EC100B01F0FCFE5A
:104E400094ED081A94ED072A31EE011A9FED733A9A
:104E500031EE021A00EE100A21EE031A21EE003A9A
:104E600022EE0A4A33EE443A21EE0A4A22EE000AC2
:104E7000A06430EE040AC4E90506204684ED0A2A3F
:104E800084ED0B1A84ED0C3A84ED0D0A00F0BAFEA5
:104E9000386A092826D828460121FBF72FFC386AF2
:104EA00087ED090A01304045386216D1786AB97831
:104EB0006060F86AA17000284FF00000C8BF0120B0
:104EC000E07043F233300021C3F63370F962C7E972
:104ED0000811C4E9030184F84C10BDEC068BBDE851
:104EE000F08100BF4DF2F921884257D828460121B0
:104EF000FBF704FC97ED071A9FED4A2A4CF6CD41CB
:104F000031EE021A9FED482AB4EE491AF1EE10FA7A
:104F1000B8BFB0EE412A386ACCF6CC41414346F2E4
:104F200066624FEAF101C0F26662914287ED072A9C
:104F30000ED897ED0A1A4FF0FF31B4EE401AFA6A14
:104F4000F1EE10FAB8BF01211144F96287ED0A0AA7
:104F50004DF2F9218842A5D197ED091A30EE410AA8
:104F60009FED321AB0EEC00AB4EE410A9FED301A3E
:104F700039EE402AF1EE10FAB8BFB0EE402A81EEC9
:104F8000020ABDEEC00A10EE100A78804DF2FA2037
:104F90003862BDEC068BBDE8F08100BF4045BFF430
:104FA00081AF28460121FBF7A9FB386A4CF6CD41B9
:104FB00097ED071A9FED1A2ACCF6CC41A0FB0112FF
:104FC00097ED0A3A31EE021AB5EE401A5109F1EEA8
:104FD00010FA01EB8101B4EE403A08BFB0EE491A75
:104FE000F1EE10FAA0EBC10187ED071A06DD0029EA
:104FF0007FF458AFF96A013105E000BF00297FF462
:1050000051AFF96A0139F96287ED0A0A4AE700BF30
:105010000000B4430000B4C335FA8E3C3ACD133FD0
:105020000AD723BD0AD7233D0000000000004843F3
:105030000000074510B52DED048B044600F59A706D
:105040000121FBF75BFB9FED6F1A94ED012A30EE17
:10505000413AB4EE420AF1EE10FAB8BFB0EE403A6F
:10506000E07832EE432A0128A07831EE420A08BFE8
:10507000B0EE402A00EE100AB8EE400A22EE000A16
:10508000B4EE410AF1EE10FA84ED532A1EDD9FEDD5
:105090005E2A00BF30EE020AB4EE410AF1EE10FAC9
:1050A00014DD30EE020AB4EE410AF1EE10FA0DDD25
:1050B00030EE020AB4EE410AF1EE10FA06DD30EEEF
:1050C000020AB4EE410AF1EE10FAE3DC9FED4F1A4A
:1050D00084ED020A20EE010A10EE100A02F062FAD4
:1050E00041EC180BB0EE480AF0EE680A01F014F932
:1050F00051EC100B01F0A0FDB0EE480AF0EE680A8A
:1051000009EE100A606401F0A3F851EC100B01F0F5
:1051100093FD94ED080A94ED072A30EE000A9FED06
:105120003C3A30EE020A01EE100A20EE033A23EE7A
:10513000010A22EE094AD4ED140A30EE440A23EEA5
:10514000094A22EE011AA06431EE041A04F1940017
:1051500084ED0A2A84ED0B3A84ED0C0A84ED0D1AD5
:10516000FEF718FE84ED030A94ED0D0AD4ED150A3E
:1051700004F1BC00FEF70EFE94ED031A94ED1B6AD9
:1051800094ED194A94ED1C7AB4EE461A94ED1A5A2D
:10519000F1EE10FAB4EE441A94ED112A94ED123A9D
:1051A000B8BFB0EE461AF1EE10FAB4EE470AC8BF27
:1051B000B0EE441A84ED031AF1EE10FAB4EE450A8B
:1051C000B8BFB0EE470AF1EE10FAC8BFB0EE450A1C
:1051D00084ED040A21EE024A20EE035A20EE020A70
:1051E00021EE031A35EE444A31EE000A84ED054AF9
:1051F000204684ED060ABDEC048BBDE8104000F0AB
:1052000001BD00BF0000B4430000B4C335FA8E3CBA
:105210003ACD133F000000002DE9F0472DED088B3B
:10522000ADF5487D044600F59A700121FBF766FA5A
:105230009FED121A94ED012A30EE413AB4EE420A83
:10524000F1EE10FAB8BFB0EE403AE07832EE432A01
:105250000128A07831EE420A08BFB0EE402A00EEE5
:10526000100AB8EE400A22EE000AB4EE410AF1EE4E
:1052700010FA84ED532A25DD06E000BF0000B44398
:105280000000B4C335FA8E3C1FED032A30EE020A4B
:10529000B4EE410AF1EE10FA14DD30EE020AB4EE7B
:1052A000410AF1EE10FA0DDD30EE020AB4EE410AC9
:1052B000F1EE10FA06DD30EE020AB4EE410AF1EE2C
:1052C00010FAE3DC1FED111A84ED020A20EE010A48
:1052D00010EE100A02F066F941EC180BB0EE480A25
:1052E000F0EE680A01F018F851EC100B01F0A4FC84
:1052F000B0EE480AF0EE680A09EE100A606400F0A9
:10530000A7FF51EC100B01F097FC94ED083A94EDD7
:10531000074A33EE033A9FEDFA5A33EE043A00EEB1
:10532000100A94ED031A94ED042A23EE053A23EEB5
:10533000005A24EE096A35EE465A23EE096A24EE35
:10534000007A84ED0A4A84ED0B3A21EE093A22EE06
:10535000004A22EE092A21EE000AA06437EE066A0E
:1053600034EE433A30EE020A204684ED0C5A84EDC6
:105370000D6A84ED053A84ED060A00F043FC40F224
:105380007808C2F2000898F80000C8B994ED020A43
:10539000B1EE042A94ED561A20EE020ABDEEC00AC0
:1053A00040F2B80110EE100AB0EEC10A21EE011A67
:1053B000C2F2000121EE000A01EB800080ED000A3C
:1053C000D8F818004CF25131884200F084814CF238
:1053D0005031884240F0868140F2B809C2F200099B
:1053E00099ED001A0020B6EE000A41F61C4100BFFC
:1053F00009EB000292ED012A92ED023A31EE021A17
:1054000021EE001A92ED034A82ED001A32EE031AE1
:1054100021EE001A92ED045A82ED011A33EE041ABD
:1054200021EE001A82ED021A34EE051A92ED052AD9
:1054300021EE001A82ED031A35EE021A92ED063AB9
:1054400021EE001A82ED041A32EE031A21EE002A30
:1054500092ED071A82ED052A33EE012A1C3022EE66
:10546000002A884282ED062AC2D19FEDA60A0020BA
:1054700009EB000191ED001A91ED012A91ED023A3C
:1054800030EE010A91ED034A30EE020A91ED045A22
:1054900030EE030A91ED056A30EE040A91ED067ACA
:1054A00030EE050AD1ED070A30EE060A30EE070AA3
:1054B00091ED081A30EE200A91ED092A91ED0A3A91
:1054C00030EE010A91ED0B4A30EE020A91ED0C5AD2
:1054D00030EE030A91ED0D6A30EE040A91ED0E7A7A
:1054E00030EE050AD1ED0F0A30EE060A30EE070A5B
:1054F00091ED101A30EE200A91ED112A91ED123A39
:1055000030EE010A91ED134A30EE020A91ED145A81
:1055100030EE030A91ED156A30EE040A91ED167A29
:1055200030EE050AD1ED170A30EE060A30EE070A12
:1055300091ED181A30EE200A91ED192A91ED1A3AE0
:1055400030EE010A91ED1B4A30EE020A91ED1C5A31
:1055500030EE030A91ED1D6A30EE040A91ED1E7AD9
:1055600030EE050AD1ED1F0A30EE060A30EE070ACA
:1055700091ED201A30EE200A91ED212A91ED223A88
:1055800030EE010A91ED234A30EE020A30EE030AB2
:105590009030B0F5E15F30EE040A7FF469AF9FED23
:1055A0005A1AA9F10C0780EE018A9FED530B4FF4B4
:1055B000E16456EC105B00BF97ED030A97ED04BA67
:1055C00030EE480A10EE100A97ED05AA97ED069AFC
:1055D00020F0004001F0E6FF2A46334601F0EAFDE4
:1055E00001F02AFB00EE100A20EE000A87ED030A04
:1055F0003BEE480A10EE100A20F0004001F0D2FF06
:105600002A46334601F0D6FD01F016FB00EE100AE3
:1056100020EE000A87ED040A3AEE480A10EE100A5E
:1056200020F0004007F1140A01F0BCFF2A4633467F
:1056300001F0C0FD01F000FB00EE100A20EE000AB0
:1056400087ED050A39EE480A10EE100A20F00040F6
:1056500001F0A8FF2A46334601F0ACFD01F0ECFA58
:1056600000EE100A97ED071A20EE000A87ED060AF1
:1056700031EE480A10EE100A20F0004001F092FFCF
:105680002A46334601F096FD01F0D6FA00EE100AE4
:1056900020EE000A87ED070A053C57468CD16D467F
:1056A000284649464FF44872FAF794FE09F54871C6
:1056B00048464FF4C852FAF7BFFE09F5C8502946CC
:1056C0004FF44872FAF786FE4CF25130C8F81800D1
:1056D000012088F800000DF5487DBDEC088BBDE881
:1056E000F08700BF0130C8F818000DF5487DBDEC0B
:1056F000088BBDE8F08700BF8DEDB5A0F7C6C03EB2
:105700003ACD133F000000000000E14410B52DED3C
:10571000048B044600F59A700121FAF7EFFF9FED24
:105720009D1A94ED012A30EE413AB4EE420AF1EEB0
:1057300010FAB8BFB0EE403AE07832EE432A0128C2
:10574000A07831EE420A08BFB0EE402A00EE100AFF
:10575000B8EE400A22EE000AB4EE410AF1EE10FA69
:1057600084ED532A1EDD9FED8C2A00BF30EE020A25
:10577000B4EE410AF1EE10FA14DD30EE020AB4EE96
:10578000410AF1EE10FA0DDD30EE020AB4EE410AE4
:10579000F1EE10FA06DD30EE020AB4EE410AF1EE47
:1057A00010FAE3DC9FED7D1A84ED020A20EE010A77
:1057B00010EE100A01F0F6FE41EC180BB0EE480AAC
:1057C000F0EE680A00F0A8FD51EC100B01F034FA7D
:1057D000B0EE480AF0EE680A09EE100A606400F0C4
:1057E00037FD51EC100B01F027FA94ED080A94ED07
:1057F000072A30EE000A9FED6A3A30EE020A01EE07
:10580000100A20EE033AA06423EE010A22EE094AB0
:1058100094F83E0130EE440A23EE094A22EE011AC2
:1058200031EE041A84ED0A2A84ED0B3A84ED0C0A59
:1058300084ED0D1A10B1D4ED140A57E0D4ED180A16
:1058400094ED570A04F58670FEF7A4FA9FED551AF9
:1058500060EE010A94ED220A94ED211AF4EE400A5A
:10586000F1EE10FAF4EE410AB8BFF0EE400AF1EEA4
:1058700010FAC8BFF0EE410AE07894ED390A012829
:10588000B0EEC00AC4ED160A06D194ED3A1A84EDC2
:10589000390AB0EEC10A09E094ED3A1AB1EE400AB5
:1058A00084ED390AB0EEC10AB1EE400A84ED3A0A3D
:1058B00094ED550A04F1E400FEF76CFA94ED1F1A1A
:1058C000F0EE400A94ED1D2A94ED0C0AF4EE410A24
:1058D000F1EE10FAF4EE420AB8BFF0EE410AF1EE32
:1058E00010FAC8BFF0EE420AC4ED140A04F19400A5
:1058F000FEF750FA84ED030A94ED0D0AD4ED150A73
:1059000004F1BC00FEF746FA94ED031A94ED1B6A0D
:1059100094ED194A94ED1C7AB4EE461A94ED1A5A95
:10592000F1EE10FAB4EE441A94ED112A94ED123A05
:10593000B8BFB0EE461AF1EE10FAB4EE470AC8BF8F
:10594000B0EE441A84ED031AF1EE10FAB4EE450AF3
:10595000B8BFB0EE470AF1EE10FAC8BFB0EE450A84
:1059600084ED040A21EE024A20EE035A20EE020AD8
:1059700021EE031A35EE444A31EE000A84ED054A61
:10598000204684ED060ABDEC048BBDE8104000F013
:1059900039B900BF0000B4430000B4C335FA8E3CEF
:1059A0003ACD133F0AD7233CB0B52DED048B044606
:1059B00000F59A700121FAF7A1FE9FED8E1A94ED81
:1059C000012A30EE413AB4EE420AF1EE10FAB8BFC5
:1059D000B0EE403A32EE432AE578A07831EE420A42
:1059E000012D08BFB0EE402A00EE100AB8EE400AC2
:1059F00022EE000AB4EE410AF1EE10FA84ED532AC9
:105A00001EDD9FED7D2A00BF30EE020AB4EE410A92
:105A1000F1EE10FA14DD30EE020AB4EE410AF1EEB6
:105A200010FA0DDD30EE020AB4EE410AF1EE10FA82
:105A300006DD30EE020AB4EE410AF1EE10FAE3DCC4
:105A40009FED6E1A84ED020A20EE010A10EE100A94
:105A500001F0A8FD41EC180BB0EE480AF0EE680A20
:105A600000F05AFC51EC100B01F0E6F8B0EE480AD9
:105A7000F0EE680A09EE100A606400F0E9FB51ECF0
:105A8000100B01F0D9F894ED080A94ED072A30EED6
:105A9000000A9FED5B3A30EE020A01EE100A20EE9A
:105AA000033AA06423EE010A22EE094A94F83E016B
:105AB00030EE440A23EE094A22EE011A31EE041AAE
:105AC00084ED0A2A84ED0B3A84ED0C0A84ED0D1A5C
:105AD00010B1D4ED140A39E094ED390A012DB0EE7D
